:1000000010B580EA030E0EEA010C8CEA030301EA44
:10001000020080EA0E0003EA020C029C8CEA010C4A
:1000200003EA00014A402060DB4380EA0C0082EAD8
:100030000C02C4E90232606010BD00BF036810B456
:100040000C68634013604C684368634053608C687D
:10005000836863409360C368C96810BC4B40D36039
:10006000704700BF002300B596461A4601FA03FC0C
:10007000013300EAEC7C202B82EA0C024FEA70008C
:10008000F4D1CEF800205DF804FB00BF70B514A3D6
:10009000D3E9002384B0CDE9002313A3D3E90023DF
:1000A000CDE902236E46A0F1040CA1F1040E00F18B
:1000B0000C05002056F8041B5CF8044F034604FAB4
:1000C00003F2013301EAE272202B80EA02004FEAD8
:1000D0007101F4D165454EF8040FEAD104B070BD4A
:1000E000851086A32170416380F22C691348A548CE
:1000F0002DE9F04F03468846D0E90050D3E90214B9
:100100008FB0CDE90A50CDE90C140FF2CC0BDBE92E
:1001100000AB0192464608F1E00906AF30A3D3E9EF
:100120000023CDE90223F368326863406A4082EA23
:10013000030472685040B26881EA020504EA0002D2
:10014000534000EA050203EA05016240484003EA21
:10015000020169404140DB43CDE904ABCDE9083100
:1001600006924240079202ADBE460DF1280C0020D7
:1001700055F8041B5EF8044B034604FA03F20133FE
:1001800001EAE272202B80EA02004FEA7101F4D109
:10019000BD424CF8040BEAD11036B14504D0DDE97C
:1001A0000A50DDE90C14B9E7DDE90A23D8F8E010BC
:1001B00001984A400260D8F8E4100C9A4B40436022
:1001C000D8F8E8100D9B4A408260D8F8EC205340E4
:1001D000C3600FB0BDE8F08F80F22C691348A548CA
:1001E000851086A32170416310B50024C4B0214658
:1001F000F02208A8CDE90044CDE90244FFF7FEFF54
:10020000684604AA08A9CDE90444CDE90644FFF7ED
:08021000FEFF102044B010BDF8
:00000001FF
