:020000040800F2
:1000000000400020DD170008190C00081B0C000838
:100010001D0C00081F0C0008210C00080000000047
:10002000000000000000000000000000230C000899
:10003000250C000800000000270C0008290C00080F
:10004000251800082518000825180008251800089C
:10005000251800082518000825180008251800088C
:10006000251800082518000825180008251800087C
:10007000251800082518000825180008251800086C
:10008000251800082518000825180008251800085C
:10009000251800082518000825180008251800084C
:1000A000251800082518000825180008251800083C
:1000B000251800082518000825180008251800082C
:1000C000251800082518000825180008251800081C
:1000D000251800082518000825180008251800080C
:1000E00025180008251800082518000825180008FC
:1000F0002518000800000000000000002518000876
:100100000000000000000000251800082518000865
:100110002518000825180008251800080000000010
:10012000251800080000000000000000000000008A
:0C01300000000000000000005FF808F173
:10013C000348044B834202D0034B03B1184770476A
:10014C001C0000201C00002000000000054806498F
:10015C000B1AD90F01EBA301491002D0034B03B1C9
:10016C00184770471C0000201C00002000000000F5
:10017C0010B5064C237843B9FFF7DAFF044B13B1E3
:10018C000448AFF300800123237010BD1C00002035
:10019C00000000002818000808B5044B1BB10449E6
:1001AC000448AFF30080BDE80840CFE70000000032
:1001BC00200000202818000870B50D4E0D4D761B40
:1001CC00B61006D0002455F8043B01349847A642DB
:1001DC00F9D1094E094D01F021FB761BB61006D062
:1001EC00002455F8043B01349847A642F9D170BD60
:1001FC0064180008641800086818000864180008DF
:10020C00830730B548D0541E002A3FD00346CAB2EB
:10021C0001E0013C3AD303F8012B9D07F9D1032CE3
:10022C002DD9CDB245EA05250F2C45EA054536D921
:10023C00A4F1100222F00F0C03F1200EE6444FEA59
:10024C00121C03F1100242E9045542E90255103226
:10025C007245F8D10CF1010214F00C0F03EB0212F1
:10026C0004F00F0C13D0ACF1040323F0030304339C
:10027C00134442F8045B9342FBD10CF003042CB101
:10028C00CAB21C4403F8012B9C42FBD130BD64461E
:10029C001346002CF4D1F9E703461446BFE71A467F
:1002AC00A446E0E753B94AB9002908BF00281CBF8F
:1002BC004FF0FF314FF0FF3000F076B9ADF1080C84
:1002CC006DE904CE00F006F8DDF804E0DDE9022368
:1002DC0004B070472DE9F047089E0D460446884649
:1002EC00002B4DD18A42944668D9B2FA82F252B1AF
:1002FC0001FA02F3C2F1200120FA01F10CFA02FC1E
:10030C0041EA030894404FEA1C41B8FBF1F71FFA8D
:10031C008CFE01FB178807FB0EF0230C43EA084305
:10032C0098420AD91CEB030307F1FF3580F01E81BC
:10033C00984240F21B81023F63441B1AB3FBF1F05D
:10034C0001FB103300FB0EFEA4B244EA0344A645A5
:10035C000AD91CEB040400F1FF3380F00981A64597
:10036C0040F20681644402380021A4EB0E0440EAFA
:10037C0007401EB10023D440C6E90043BDE8F08716
:10038C008B4208D9002E00F0EE800021C6E9000552
:10039C000846BDE8F087B3FA83F100294AD1AB4295
:1003AC0002D3824200F2FC80841A65EB0303012025
:1003BC009846002EE2D0C6E90048DFE702B9FFDE1E
:1003CC00B2FA82F2002A40F09180A1EB0C000121DC
:1003DC004FEA1C471FFA8CFEB0FBF7F307FB130028
:1003EC00250C45EA00450EFB03F0A84208D91CEB8E
:1003FC00050503F1FF3802D2A84200F2CE80434635
:10040C002D1AB5FBF7F007FB10550EFB00FEA4B23E
:10041C0044EA0544A64508D91CEB040400F1FF3559
:10042C0002D2A64500F2B6802846A4EB0E0440EAA0
:10043C0003409EE7C1F120078B4022FA07FC4CEAEF
:10044C00030C25FA07FA4FEA1C49BAFBF9F820FA13
:10045C0007F309FB18AA8D401FFA8CFE1D4300FA06
:10046C0001F308FB0EF02C0C44EA0A44A04202FAF9
:10047C0001F20BD91CEB040408F1FF3A80F08880E0
:10048C00A04240F28580A8F102086444241AB4FB0F
:10049C00F9F009FB104400FB0EFEADB245EA044432
:1004AC00A64508D91CEB040400F1FF356CD2A64517
:1004BC006AD90238644440EA0840A0FB0295A4EBD8
:1004CC000E04AC42C846AE4656D353D0002E69D06B
:1004DC00B3EB080264EB0E0422FA01F304FA07F7FB
:1004EC001F43CC40C6E90074002147E70CFA02FC1C
:1004FC00C2F1200125FA01F34FEA1C4720FA01F161
:10050C0095400D43B3FBF7F107FB11331FFA8CFE3B
:10051C00280C40EA034001FB0EF3834204FA02F478
:10052C0008D91CEB000001F1FF382FD283422DD9E2
:10053C0002396044C01AB0FBF7F307FB1300ADB2ED
:10054C0045EA004503FB0EF0A84208D91CEB050553
:10055C0003F1FF3816D2A84214D9023B6544281A7D
:10056C0043EA014138E73146304607E72F46E4E6D7
:10057C001846F9E64B45A9D2B9EB020865EB0C0E0F
:10058C000138A3E74346EAE7284694E74146D1E71A
:10059C00D0467BE76444023847E7023B65442FE7CB
:1005AC00084606E73146E9E6704700BF0B4B1B686F
:1005BC0083B90A4B01221A60094AD2F8FC3043F085
:1005CC008073C2F8FC30074B1A6842F001021A60C3
:1005DC0000225A60034B5868704700BF3800002057
:1005EC0000ED00E0001000E010B4019C584000EA5F
:1005FC00010C83EA0C0301EA020C80EA0C0003EA0A
:10060C00020C81EA0C0103EA000C82EA0C024A405B
:10061C004140DB4320606160A360E26010BC704726
:10062C0010B403680C686340136043684C68634003
:10063C00536083688C6863409360C368C9684B409F
:10064C00D36010BC704700B5964600231A4608E0EC
:10065C0001FA03FC00EAEC7C82EA0C024FEA70001F
:10066C0001331F2BF4DDCEF800205DF804FB0000F5
:10067C0070B584B006460D460C4B00930C4B0193A1
:10068C000C4B02930C4B039300240BE004AB03EBD9
:10069C00840305EB840256F8241053F8100CFFF772
:1006AC00D2FF0134032CF1DD04B070BD851086A39C
:1006BC002170416380F22C691348A5482DE9F04163
:1006CC0084B006460F461546124B0093124B01930D
:1006DC00124B0293124B0393FFF768FF80460024E2
:1006EC000BE004AB03EB840305EB840256F82410F7
:1006FC0053F8100CFFF7A7FF0134032CF1DDFFF7C3
:10070C0055FFA0EB0800FB680344FB6004B0BDE898
:10071C00F08100BF851086A32170416380F22C69A3
:10072C001348A5482DE9F0438FB00E461446994660
:10073C00036802934368039383680493C368059327
:10074C00002530E0FFF732FF80460AAA06EB0511C0
:10075C0002A8FFF765FFFFF729FFA0EB080023684D
:10076C0003442360FFF722FF804606AF00970D9BE2
:10077C000C9A0B990A98FFF737FFFFF717FFA0EBBE
:10078C000800636803446360FFF710FF804602A90A
:10079C003846FFF76DFFFFF709FFA0EB0800A368D1
:1007AC001844A06001350D2DCCDDFFF7FFFE05468A
:1007BC004A4606F1E00102A8FFF732FFFFF7F6FE0A
:1007CC00401B2368034423600FB0BDE8F0832DE980
:1007DC00F0438FB00E461446994603680293436863
:1007EC00039383680493C3680593002530E0FFF7F7
:1007FC00DDFE80460AAA06EB051102A8FFF710FFE2
:10080C00FFF7D4FEA0EB0800236803442360FFF736
:10081C00CDFE804606AF00970D9B0C9A0B990A985B
:10082C00FFF7E2FEFFF7C2FEA0EB0800636803448B
:10083C006360FFF7BBFE804602A93846FFF718FF3E
:10084C00FFF7B4FEA0EB0800A3681844A0600135C4
:10085C000D2DCCDDFFF7AAFE05464A4606F1E00158
:10086C0002A8FFF7DDFEFFF7A1FE401B236803443F
:10087C0023600FB0BDE8F0832DE9F0438FB00E4636
:10088C001446994603680293436803938368049360
:10089C00C3680593002530E0FFF788FE80460AAA5E
:1008AC0006EB051102A8FFF7BBFEFFF77FFEA0EBDE
:1008BC000800236803442360FFF778FE804606AFE8
:1008CC0000970D9B0C9A0B990A98FFF78DFEFFF77A
:1008DC006DFEA0EB0800636803446360FFF766FEDF
:1008EC00804602A93846FFF7C3FEFFF75FFEA0EB78
:1008FC000800A3681844A06001350D2DCCDDFFF76E
:10090C0055FE05464A4606F1E00102A8FFF788FEAF
:10091C00FFF74CFE401B2368034423600FB0BDE877
:10092C00F0832DE9F0438FB00E46144699460368C8
:10093C0002934368039383680493C368059300256B
:10094C0031E0FFF733FE80460AAA06EB051102A838
:10095C00FFF766FEFFF72AFEA0EB080023680344AE
:10096C002360FFF723FE804606AF00970D9B0C9A81
:10097C000B990A98FFF738FEFFF718FEA0EB08005A
:10098C00636803446360FFF711FE804602AA2146A8
:10099C003846FFF793FEFFF709FEA0EB0800A368AB
:1009AC001844A06001350D2DCBDDFFF7FFFD05468A
:1009BC004A4606F1E00102A8FFF732FEFFF7F6FD0A
:1009CC00401B2368034423600FB0BDE8F08310B5CF
:1009DC00C8B000244494459446944794F022214690
:1009EC0008A8FFF70DFC0494059406940794009452
:1009FC000194029403946B4604AA08A944A8FFF737
:100A0C0091FE049848B010BD10B5C8B000244494B1
:100A1C00459446944794F022214608A8FFF7F0FB32
:100A2C0004940594069407940094019402940394FE
:100A3C006B4604AA08A944A8FFF7C9FE059848B05C
:100A4C0010BD10B5C8B00024449445944694479406
:100A5C00F022214608A8FFF7D3FB049405940694D2
:100A6C00079400940194029403946B4604AA08A979
:100A7C0044A8FFF701FF069848B010BD10B5C8B0E8
:100A8C0000244494459446944794F022214608A8A7
:100A9C00FFF7B6FB04940594069407940094019414
:100AAC00029403946B4604AA08A944A8FFF739FFE3
:100ABC00079848B010BD72B6FEE7000000B593B0C1
:100ACC003422002105A8FFF79BFB00230093019320
:100ADC0002930393049316490A6822F4C05242F419
:100AEC0000620A60022205920121089110210991ED
:100AFC000E920F934FF4002310934FF400031193B5
:100B0C0005A800F047F978B90F230093032301934C
:100B1C0000230293039304930121684600F022FC06
:100B2C0020B913B05DF804FBFFF7C5FFFFF7C3FF57
:100B3C000070004038B500F0C3F8FFF7BFFF002489
:100B4C00002C02DD00F012F8FEE7FFF740FF064D27
:100B5C002860FFF759FF6860FFF773FFA860FFF785
:100B6C008DFFE8600134EBE70000002070B58AB01F
:100B7C00002405940694079408940994204BDA6990
:100B8C0042F00402DA61DA6902F004020192019A7D
:100B9C00DA6942F02002DA61DA6902F0200202928C
:100BAC00029ADA6942F00102DA61DA6902F00102B2
:100BBC000392039ADA6942F00202DA61DB6903F00C
:100BCC0002030493049B0F4D22464FF440712846B8
:100BDC0000F098FD012605964FF4901306930794A8
:100BEC0005A9094800F0ACFC4FF440730593069638
:100BFC000794089405A9284600F0A2FC0AB070BD21
:100C0C00003802400008024000000240FEE7FEE708
:100C1C00FEE7FEE7FEE770477047704708B500F047
:100C2C005FF808BD00B585B0104B5A6A42F000421F
:100C3C005A625A6A02F000420192019A1A6A42F010
:100C4C0001021A621A6A02F001020292029A5A6AAC
:100C5C0042F080525A625B6A03F080530393039B09
:100C6C00072000F055FD05B05DF804FB003802408C
:100C7C00104B1B680BB90120704710B504464FF49C
:100C8C007A70B0FBF3F30C4A1068B0FBF3F000F091
:100C9C0089FD68B90F2C01D901200AE000222146F8
:100CAC004FF0FF3000F046FD044B1C60002000E0CC
:100CBC00012010BD1000002018000020140000209E
:100CCC0010B5032000F024FD0020FFF7D1FF10B178
:100CDC000124204610BD0446FFF7A4FFF9E70000ED
:100CEC00034A1368034909680B441360704700BF3B
:100CFC003C00002010000020014B1868704700BF1A
:100D0C003C00002010B483B01F4B9B6813F0F00321
:100D1C0028D11D4A526A12F0805F10D01B4A12680B
:100D2C0002F4C052B2F5C05F1DD1B0F5404F1AD1DC
:100D3C00174A136843F004031360012313E01249AC
:100D4C004A6A42F080524A624A6A02F08052019228
:100D5C00019A0E4A126802F4C0524C6A24F0805474
:100D6C004C62DFE700230A490A6822F001021A43A9
:100D7C000A600A6802F001029A4203D1002003B013
:100D8C0010BC70470120FAE70038024000700040A8
:100D9C00003C0240002800F05E82F0B583B00446AF
:100DAC00A24B9D6805F00C059E6806F4803603681E
:100DBC0013F0010F1DD0082D12D00C2D0ED063682E
:100DCC00012B35D0002B49D1984B1A6822F4803274
:100DDC001A601A6822F480221A602EE0002EEED0DF
:100DEC00924B1B6813F4003F03D06368002B00F098
:100DFC003482236813F0020F68D0042D55D00C2DCB
:100E0C0051D0E368002B00F0C780894B01221A6097
:100E1C00FFF772FF0646854B1B6813F0020F40F07C
:100E2C00B280FFF769FF801B0228F4D903201DE272
:100E3C007E4A136843F480331360636823B3FFF76F
:100E4C005BFF0746794B1B6813F4003FD1D1FFF7CA
:100E5C0053FFC01B6428F5D9032007E2052B09D0EA
:100E6C00724B1A6822F480321A601A6822F48022BB
:100E7C001A60E2E76D4B1A6842F480221A601A6815
:100E8C0042F480321A60D8E7FFF736FF0746674B0B
:100E9C001B6813F4003FACD0FFF72EFFC01B642877
:100EAC00F5D90320E2E1002EABD1604B1B6813F0A7
:100EBC00020F03D0E368012B40F0D1815B4A5368E9
:100ECC0023F4F853216943EA01235360236813F098
:100EDC00100F3BD0002D40F08580544B1B6813F451
:100EEC00007F03D0A369002B00F0BB81206A4F4B1D
:100EFC005B6803F46043984260D9FFF703FF002856
:100F0C0040F0B181494A536823F46043216A0B4392
:100F1C005360536823F07F43E16943EA01635360F4
:100F2C00236A5B0B5A1C4FF4004393403F4A926870
:100F3C00C2F303123F498A5CD3403F4A13603F4BD4
:100F4C001868FFF795FE002840F09081236813F095
:100F5C00080F00F09B806369002B00F08480344BF9
:100F6C000122C3F88026FFF7C7FE06462F4B5B6BAA
:100F7C0013F0020F40F08A80FFF7BEFE801B0228A0
:100F8C00F4D9032072E1294A536823F4F8532169F8
:100F9C0043EA0123536099E7254B00221A60FFF7BF
:100FAC00ABFE0646214B1B6813F0020F8ED0FFF7E9
:100FBC00A3FE801B0228F5D9032057E11B4A536876
:100FCC0023F4604318435060536823F07F43E16976
:100FDC0043EA01635360206AFFF794FE00289FD018
:100FEC00012043E1A3695BB3114B01221A62FFF7A5
:100FFC0083FE06460D4B1B6813F4007F06D1FFF7EA
:10100C007BFE801B0228F5D903202FE1074A536889
:10101C0023F46043216A0B435360536823F07F43EE
:10102C00E16943EA0163536090E700BF0038024076
:10103C00000047424018000818000020140000204F
:10104C008F4B00221A62FFF757FE06468D4B1B682A
:10105C0013F4007F3FF47AAFFFF74EFE801B02289B
:10106C00F4D9032002E1864B0022C3F88026FFF757
:10107C0043FE0646834B5B6B13F0020F06D0FFF763
:10108C003BFE801B0228F5D90320EFE0236813F008
:10109C00040F79D07B4B5B6A13F0805F0BD1794BDB
:1010AC005A6A42F080525A625B6A03F08053019391
:1010BC00019B012600E00026734B1B6813F4807F14
:1010CC000ED0A368012B1FD0002B35D16D4B5A6B62
:1010DC0022F480725A635A6B22F480625A6318E0CD
:1010EC00694A136843F480731360FFF705FE0746E3
:1010FC00654B1B6813F4807FE3D1FFF7FDFDC01B2C
:10110C006428F5D90320B1E05E4A536B43F4807335
:10111C005363A36833B3FFF7EFFD0746594B5B6B83
:10112C0013F4007F2FD1FFF7E7FDC01B41F288338A
:10113C009842F3D9032099E0052B09D0514B5A6BF7
:10114C0022F480725A635A6B22F480625A63E0E78D
:10115C004C4B5A6B42F480625A635A6B42F4807265
:10116C005A63D6E7FFF7C8FD0746464B5B6B13F493
:10117C00007F08D0FFF7C0FDC01B41F288339842B6
:10118C00F3D9032072E0C6B9636A002B6DD00C2D25
:10119C004CD0022B17D03A4B00221A66FFF7ACFD4D
:1011AC000446384B1B6813F0007F3DD0FFF7A4FDBD
:1011BC00001B0228F5D9032058E0324A536A23F069
:1011CC0080535362E0E72E4B00221A66FFF794FD22
:1011DC0005462C4B1B6813F0007F06D0FFF78CFDE7
:1011EC00401B0228F5D9032040E026498B6823F4E4
:1011FC007D03A26AE06A0243206B024313438B60B7
:10120C001F4B01221A66FFF777FD04461D4B1B6826
:10121C0013F0007F06D1FFF76FFD001B0228F5D9F4
:10122C00032023E0002021E000201FE0012B1FD031
:10123C00144B9B6803F48031A26A91421AD103F4D7
:10124C007012E16A8A4217D103F44003226B934275
:10125C0014D100200AE001207047012006E0012093
:10126C0004E0012002E0012000E0002003B0F0BD0A
:10127C000120FBE70120F9E70120F7E70120F5E762
:10128C0000004742003802400070004008B5314B66
:10129C009A6802F00C03082B57D00C2B0AD0042BA5
:1012AC0055D02C4B5868C0F34230431C4FF40040CF
:1012BC0098404DE0C2F38343274911F803C0C2F3B1
:1012CC0081520132234B9B6813F4803F1ED04FEAAE
:1012DC004C11B1EB0C006EEB0E0E4FEA8E1343EA81
:1012EC0090638101091A63EB0E03DB0043EA51732F
:1012FC00C90011EB0C0C43F10003590200234FEA17
:10130C004C2041EADC51FEF7CDFF21E04FEA4C11B5
:10131C00B1EB0C006EEB0E0E4FEA8E1343EA9063AA
:10132C008101091A63EB0E03DB0043EA5173C90018
:10133C0011EB0C0C43F10003990200234FEA8C20B3
:10134C0041EA9C51FEF7AEFF02E0044800E004487D
:10135C0008BD00BF003802405018000800127A0087
:10136C000024F400002800F0D98070B50C46054626
:10137C006E4B1B6803F001038B420DD2012928D060
:10138C006A4A136823F0010323431360136803F0C4
:10139C000103A34240F0C4802B6813F0020F06D067
:1013AC00634A936823F0F003A9680B4393602B689E
:1013BC0013F0010F72D06B68022B10D0032B32D0BC
:1013CC00012B37D05A4A126812F4007F0DD101203C
:1013DC009DE0564A136843F004031360D0E7544A67
:1013EC00126812F4003F00F09D8051498A6822F087
:1013FC00030213438B60FFF77FFC06466B68022BDE
:10140C001FD0032B2CD0012B39D0494B9B6813F0E8
:10141C000C0F43D0FFF770FC801B41F288339842CD
:10142C00F3D9032073E0424A126812F0007FDCD13A
:10143C0001206CE03E4A126812F0020FD5D1012057
:10144C0065E03B4B9B6803F00C03082B26D0FFF7A1
:10145C0053FC831B41F288329342F2D9032056E0AD
:10146C00334B9B6803F00C030C2B17D0FFF744FC99
:10147C00801B41F288339842F2D9032047E02C4B71
:10148C009B6803F00C03042B08D0FFF735FC801B82
:10149C0041F288339842F2D9032038E0234B1B6881
:1014AC0003F00103A3420CD9012C31D01F4A13685D
:1014BC0023F0010323431360136803F00103A342D9
:1014CC0032D12B6813F0040F06D0194A936823F419
:1014DC00E063E9680B4393602B6813F0080F07D0A7
:1014EC00134A936823F46053296943EAC103936058
:1014FC00FFF7CCFE0E4B9B68C3F303130D4AD35C72
:10150C00D8400D4B18600D4B1868FFF7B1FB70BD40
:10151C00064A136843F004031360C7E701207047C1
:10152C000120F4E70120F2E70120F0E7003C024043
:10153C000038024040180008180000201400002059
:10154C0070B582B0002365E085685E000324B4406A
:10155C0025EA0405CC68B4402C438460446824EA32
:10156C000C0C4C68C4F300149C4044EA0C0444601A
:10157C0061E0DD08083550F8256003F007044FEAF8
:10158C00840C0F2404FA0CF426EA040E0C6904FAF9
:10159C000CF444EA0E0440F8254063E0032400E018
:1015AC00002404FA0EF42C430CF1020C514D45F8B6
:1015BC002C40514C2568D44325EA0206D1F804C0CE
:1015CC001CF4803F01D042EA05064B4D2E606D683D
:1015DC0004EA0506D1F804C01CF4003F01D042EA2D
:1015EC000506454D6E60AD6804EA0506D1F804C0E9
:1015FC001CF4801F01D042EA05063F4DAE60ED6839
:10160C002C404E6816F4001F01D042EA05043A4AF9
:10161C00D46001330A6832FA03F469D04FF0010C3C
:10162C000CFA03FC1CEA0202F3D04C6804F003042D
:10163C00013C012C88D94C6804F00304032C0CD019
:10164C00C4685D004FF0030C0CFA05FC24EA0C0C8A
:10165C008C68AC4044EA0C04C4604C6804F003048D
:10166C00022C86D004684FEA430E4FF0030C0CFAA0
:10167C000EFC24EA0C0C4C6804F0030404FA0EF47F
:10168C0044EA0C0404604C6814F4403FC1D01B4C79
:10169C00256A45F001052562246A04F001040194D1
:1016AC00019C4FEA930C0CF10205124C54F8255096
:1016BC0003F003044FEA840E0F2404FA0EF425EA17
:1016CC0004050F4CA0423FF46BAF04F58064A042BC
:1016DC000AD004F58064A04208D004F58064A042CE
:1016EC003FF45CAF05245CE701245AE7022458E779
:1016FC0002B070BD000001400004014000380240FF
:10170C00000002400AB18161704709048161704791
:10171C00074AD36823F4E0631B041B0C000200F49B
:10172C00E060034343F0BF6343F40033D36070477E
:10173C0000ED00E000B5194BDB68C3F30223C3F1E5
:10174C00070CBCF1040F28BF4FF0040C03F1040E7E
:10175C00BEF1060F18D9033B4FF0FF3E0EFA0CFCFE
:10176C0021EA0C0199400EFA03F322EA0303194310
:10177C0000280BDB0901C9B200F1604000F56140A3
:10178C0080F800135DF804FB0023E5E700F00F0080
:10179C000901C9B2024B1954F4E700BF00ED00E097
:1017AC0014ED00E00138B0F1807F0BD24FF0E02354
:1017BC005861054AF02182F8231000209861072215
:1017CC001A6170470120704700ED00E0704700007F
:1017DC000C480D490D4A002302E0D458C450043380
:1017EC00C4188C42F9D30A4A0A4C002301E0136056
:1017FC000432A242FBD3FFF7E9FFFEF7DDFCFFF753
:10180C0099F97047000000201C0000206C1800089B
:10181C001C00002040000020FEE70000F8B500BFCF
:10182C00F8BC08BC9E467047F8B500BFF8BC08BCB5
:04183C009E4670470D
:101840000000000000000000010203040607080970
:0C185000030406080C10182030000000F3
:08185C0084EAFF7F0100000097
:04186400A5010008D2
:041868007D010008F6
:10186C00FFFFFFFFFFFFFFFFFFFFFFFFFFFFFFFF7C
:0C187C00010000001000000068FF1F00C9
:04000005080017DDFB
:00000001FF
